{
  "address": "0x4BaDb8D5991934F5151DFf657b5AD2664b9db0C3",
  "abi": [
    {
      "inputs": [
        {
          "internalType": "string",
          "name": "svgBaseSliced",
          "type": "string"
        }
      ],
      "stateMutability": "nonpayable",
      "type": "constructor"
    },
    {
      "inputs": [],
      "name": "ApprovalCallerNotOwnerNorApproved",
      "type": "error"
    },
    {
      "inputs": [],
      "name": "ApprovalQueryForNonexistentToken",
      "type": "error"
    },
    {
      "inputs": [],
      "name": "ApproveToCaller",
      "type": "error"
    },
    {
      "inputs": [],
      "name": "BalanceQueryForZeroAddress",
      "type": "error"
    },
    {
      "inputs": [],
      "name": "ERC721Metadata__URI_QueryFor_NonExistentToken",
      "type": "error"
    },
    {
      "inputs": [],
      "name": "MintERC2309QuantityExceedsLimit",
      "type": "error"
    },
    {
      "inputs": [],
      "name": "MintToZeroAddress",
      "type": "error"
    },
    {
      "inputs": [],
      "name": "MintZeroQuantity",
      "type": "error"
    },
    {
      "inputs": [],
      "name": "OwnerQueryForNonexistentToken",
      "type": "error"
    },
    {
      "inputs": [],
      "name": "OwnershipNotInitializedForExtraData",
      "type": "error"
    },
    {
      "inputs": [],
      "name": "TransferCallerNotOwnerNorApproved",
      "type": "error"
    },
    {
      "inputs": [],
      "name": "TransferFromIncorrectOwner",
      "type": "error"
    },
    {
      "inputs": [],
      "name": "TransferToNonERC721ReceiverImplementer",
      "type": "error"
    },
    {
      "inputs": [],
      "name": "TransferToZeroAddress",
      "type": "error"
    },
    {
      "inputs": [],
      "name": "URIQueryForNonexistentToken",
      "type": "error"
    },
    {
      "anonymous": false,
      "inputs": [
        {
          "indexed": true,
          "internalType": "address",
          "name": "owner",
          "type": "address"
        },
        {
          "indexed": true,
          "internalType": "address",
          "name": "approved",
          "type": "address"
        },
        {
          "indexed": true,
          "internalType": "uint256",
          "name": "tokenId",
          "type": "uint256"
        }
      ],
      "name": "Approval",
      "type": "event"
    },
    {
      "anonymous": false,
      "inputs": [
        {
          "indexed": true,
          "internalType": "address",
          "name": "owner",
          "type": "address"
        },
        {
          "indexed": true,
          "internalType": "address",
          "name": "operator",
          "type": "address"
        },
        {
          "indexed": false,
          "internalType": "bool",
          "name": "approved",
          "type": "bool"
        }
      ],
      "name": "ApprovalForAll",
      "type": "event"
    },
    {
      "anonymous": false,
      "inputs": [
        {
          "indexed": true,
          "internalType": "uint256",
          "name": "fromTokenId",
          "type": "uint256"
        },
        {
          "indexed": false,
          "internalType": "uint256",
          "name": "toTokenId",
          "type": "uint256"
        },
        {
          "indexed": true,
          "internalType": "address",
          "name": "from",
          "type": "address"
        },
        {
          "indexed": true,
          "internalType": "address",
          "name": "to",
          "type": "address"
        }
      ],
      "name": "ConsecutiveTransfer",
      "type": "event"
    },
    {
      "anonymous": false,
      "inputs": [
        {
          "indexed": true,
          "internalType": "address",
          "name": "from",
          "type": "address"
        },
        {
          "indexed": true,
          "internalType": "address",
          "name": "to",
          "type": "address"
        },
        {
          "indexed": true,
          "internalType": "uint256",
          "name": "tokenId",
          "type": "uint256"
        }
      ],
      "name": "Transfer",
      "type": "event"
    },
    {
      "inputs": [
        {
          "internalType": "address",
          "name": "to",
          "type": "address"
        },
        {
          "internalType": "uint256",
          "name": "tokenId",
          "type": "uint256"
        }
      ],
      "name": "approve",
      "outputs": [],
      "stateMutability": "nonpayable",
      "type": "function"
    },
    {
      "inputs": [
        {
          "internalType": "address",
          "name": "owner",
          "type": "address"
        }
      ],
      "name": "balanceOf",
      "outputs": [
        {
          "internalType": "uint256",
          "name": "",
          "type": "uint256"
        }
      ],
      "stateMutability": "view",
      "type": "function"
    },
    {
      "inputs": [
        {
          "internalType": "uint256",
          "name": "tokenId",
          "type": "uint256"
        }
      ],
      "name": "getApproved",
      "outputs": [
        {
          "internalType": "address",
          "name": "",
          "type": "address"
        }
      ],
      "stateMutability": "view",
      "type": "function"
    },
    {
      "inputs": [
        {
          "internalType": "address",
          "name": "owner",
          "type": "address"
        },
        {
          "internalType": "address",
          "name": "operator",
          "type": "address"
        }
      ],
      "name": "isApprovedForAll",
      "outputs": [
        {
          "internalType": "bool",
          "name": "",
          "type": "bool"
        }
      ],
      "stateMutability": "view",
      "type": "function"
    },
    {
      "inputs": [],
      "name": "name",
      "outputs": [
        {
          "internalType": "string",
          "name": "",
          "type": "string"
        }
      ],
      "stateMutability": "view",
      "type": "function"
    },
    {
      "inputs": [
        {
          "internalType": "uint256",
          "name": "tokenId",
          "type": "uint256"
        }
      ],
      "name": "ownerOf",
      "outputs": [
        {
          "internalType": "address",
          "name": "",
          "type": "address"
        }
      ],
      "stateMutability": "view",
      "type": "function"
    },
    {
      "inputs": [
        {
          "internalType": "address",
          "name": "from",
          "type": "address"
        },
        {
          "internalType": "address",
          "name": "to",
          "type": "address"
        },
        {
          "internalType": "uint256",
          "name": "tokenId",
          "type": "uint256"
        }
      ],
      "name": "safeTransferFrom",
      "outputs": [],
      "stateMutability": "nonpayable",
      "type": "function"
    },
    {
      "inputs": [
        {
          "internalType": "address",
          "name": "from",
          "type": "address"
        },
        {
          "internalType": "address",
          "name": "to",
          "type": "address"
        },
        {
          "internalType": "uint256",
          "name": "tokenId",
          "type": "uint256"
        },
        {
          "internalType": "bytes",
          "name": "_data",
          "type": "bytes"
        }
      ],
      "name": "safeTransferFrom",
      "outputs": [],
      "stateMutability": "nonpayable",
      "type": "function"
    },
    {
      "inputs": [
        {
          "internalType": "address",
          "name": "operator",
          "type": "address"
        },
        {
          "internalType": "bool",
          "name": "approved",
          "type": "bool"
        }
      ],
      "name": "setApprovalForAll",
      "outputs": [],
      "stateMutability": "nonpayable",
      "type": "function"
    },
    {
      "inputs": [
        {
          "internalType": "bytes4",
          "name": "interfaceId",
          "type": "bytes4"
        }
      ],
      "name": "supportsInterface",
      "outputs": [
        {
          "internalType": "bool",
          "name": "",
          "type": "bool"
        }
      ],
      "stateMutability": "view",
      "type": "function"
    },
    {
      "inputs": [
        {
          "internalType": "string",
          "name": "svg",
          "type": "string"
        }
      ],
      "name": "svgToImageURI",
      "outputs": [
        {
          "internalType": "string",
          "name": "",
          "type": "string"
        }
      ],
      "stateMutability": "pure",
      "type": "function"
    },
    {
      "inputs": [],
      "name": "symbol",
      "outputs": [
        {
          "internalType": "string",
          "name": "",
          "type": "string"
        }
      ],
      "stateMutability": "view",
      "type": "function"
    },
    {
      "inputs": [
        {
          "internalType": "uint256",
          "name": "tokenId",
          "type": "uint256"
        }
      ],
      "name": "tokenURI",
      "outputs": [
        {
          "internalType": "string",
          "name": "",
          "type": "string"
        }
      ],
      "stateMutability": "view",
      "type": "function"
    },
    {
      "inputs": [],
      "name": "totalSupply",
      "outputs": [
        {
          "internalType": "uint256",
          "name": "",
          "type": "uint256"
        }
      ],
      "stateMutability": "view",
      "type": "function"
    },
    {
      "inputs": [
        {
          "internalType": "address",
          "name": "from",
          "type": "address"
        },
        {
          "internalType": "address",
          "name": "to",
          "type": "address"
        },
        {
          "internalType": "uint256",
          "name": "tokenId",
          "type": "uint256"
        }
      ],
      "name": "transferFrom",
      "outputs": [],
      "stateMutability": "nonpayable",
      "type": "function"
    }
  ],
  "transactionHash": "0x37d62a7cf7787963f36fb6cc21894f6e76e0d538944aeb3e5bb55d1182fd9c7a",
  "args": [
    "<svg xmlns=\"http://www.w3.org/2000/svg\" viewBox=\"0 -0.5 26 32\"\n  shape-rendering=\"crispEdges\">\n  <path stroke=\"#000000\"\n    d=\"M9 0h6M8 1h1M15 1h1M7 2h1M16 2h1M7 3h1M17 3h1M7 4h1M17 4h1M6 5h1M18 5h1M6 6h1M18 6h1M6 7h1M19 7h1M5 8h1M19 8h1M5 9h1M20 9h1M5 10h1M20 10h1M4 11h1M21 11h1M4 12h1M21 12h1M4 13h1M22 13h1M3 14h1M22 14h1M3 15h1M23 15h1M3 16h1M23 16h1M2 17h1M24 17h1M2 18h1M24 18h1M2 19h1M25 19h1M1 20h1M25 20h1M1 21h1M25 21h1M1 22h1M25 22h1M0 23h1M25 23h1M0 24h1M24 24h1M0 25h1M24 25h1M0 26h1M23 26h1M1 27h1M22 27h1M1 28h1M20 28h2M2 29h1M18 29h2M3 30h2M15 30h3M5 31h10\" />\n  <path stroke=\"#e6445a\"\n    d=\"M9 1h4M8 2h4M8 3h4M8 4h4M7 5h4M7 6h4M7 7h4M6 8h4M6 9h4M6 10h4M5 11h5M5 12h5M5 13h4M4 14h5M4 15h5M4 16h5M3 17h5M3 18h5M3 19h5M2 20h5M2 21h5M2 22h5\" />\n  <path stroke=\"#c93045\"\n    d=\"M13 1h2M12 2h1M12 3h1M12 4h1M12 5h1M11 6h1M11 7h1M11 8h1M11 9h1M10 10h1M10 11h1M10 12h1M10 13h1M9 14h1M9 15h1M9 16h1M9 17h1M8 18h1M8 19h1M8 20h1M7 21h1M7 22h1\" />\n  <path stroke=\"#d3394e\"\n    d=\"M13 2h3M13 3h4M13 4h4M11 5h1M13 5h5M12 6h6M12 7h7M10 8h1M12 8h7M10 9h1M12 9h8M11 10h9M11 11h10M11 12h10M9 13h1M11 13h11M10 14h12M10 15h13M10 16h10M21 16h2M8 17h1M10 17h10M21 17h3M9 18h2M12 18h5M18 18h2M21 18h3M9 19h2M12 19h2M15 19h2M18 19h6M7 20h1M9 20h1M12 20h2M15 20h2M19 20h5M8 21h6M16 21h7M8 22h14M1 23h20M8 24h11M10 25h6\" />\n  <path stroke=\"#a62a3b\" d=\"M20 16h1M11 18h1M17 18h1M14 19h1\" />\n  <path stroke=\"#57131d\"\n    d=\"M20 17h1M20 18h1M11 19h1M17 19h1M10 20h2M14 20h1M17 20h2M14 21h2\" />\n  <path stroke=\"#7cb37c\"\n    d=\"M24 19h1M24 20h1M23 21h1M22 22h1M21 23h1M6 24h2M19 24h1M6 25h1M8 25h2M16 25h1M6 26h1M2 27h1M4 27h1M7 27h1M21 27h1M2 28h6M19 28h1M3 29h4M8 29h1M10 29h1M16 29h2M5 30h3M9 30h1M11 30h1M13 30h1\" />\n  <path stroke=\"#5b995b\"\n    d=\"M24 21h1M23 22h2M22 23h3M20 24h4M7 25h1M17 25h7M7 26h16M8 27h13M8 28h11M7 29h1M9 29h1M11 29h5M8 30h1M10 30h1M12 30h1M14 30h1\" />\n  <path stroke=\"#8dcb8d\" d=\"M1 24h5M1 25h5M1 26h5M3 27h1M5 27h2\" />\n"
  ],
  "numDeployments": 2,
  "solcInputHash": "d371216619516fde5472fe7f9c0b4688",
  "bytecode": "0x60806040523480156200001157600080fd5b5060405162002798380380620027988339818101604052810190620000379190620005dc565b6040518060400160405280600881526020017f5375646f524d52460000000000000000000000000000000000000000000000008152506040518060400160405280600381526020017f44454c00000000000000000000000000000000000000000000000000000000008152508160029080519060200190620000bb9291906200038f565b508060039080519060200190620000d49291906200038f565b50620000e56200012160201b60201c565b60008190555050508060099080519060200190620001059291906200038f565b506200011a336104006200012660201b60201c565b5062000692565b600090565b600080549050600082141562000168576040517fb562e8dd00000000000000000000000000000000000000000000000000000000815260040160405180910390fd5b6200017d60008483856200030f60201b60201c565b600160406001901b178202600560008573ffffffffffffffffffffffffffffffffffffffff1673ffffffffffffffffffffffffffffffffffffffff168152602001908152602001600020600082825401925050819055506200020c83620001ee60008660006200031560201b60201c565b620001ff856200034560201b60201c565b176200035560201b60201c565b6004600083815260200190815260200160002081905550600080838301905073ffffffffffffffffffffffffffffffffffffffff85169150828260007fddf252ad1be2c89b69c2b068fc378daa952ba7f163c4a11628f55a4df523b3ef600080a4600183015b818114620002af57808360007fddf252ad1be2c89b69c2b068fc378daa952ba7f163c4a11628f55a4df523b3ef600080a460018101905062000272565b506000821415620002ec576040517f2e07630000000000000000000000000000000000000000000000000000000000815260040160405180910390fd5b8060008190555050506200030a60008483856200038060201b60201c565b505050565b50505050565b60008060e883901c905060e8620003348686846200038660201b60201c565b62ffffff16901b9150509392505050565b60006001821460e11b9050919050565b600073ffffffffffffffffffffffffffffffffffffffff83169250814260a01b178317905092915050565b50505050565b60009392505050565b8280546200039d906200065c565b90600052602060002090601f016020900481019282620003c157600085556200040d565b82601f10620003dc57805160ff19168380011785556200040d565b828001600101855582156200040d579182015b828111156200040c578251825591602001919060010190620003ef565b5b5090506200041c919062000420565b5090565b5b808211156200043b57600081600090555060010162000421565b5090565b6000604051905090565b600080fd5b600080fd5b600080fd5b600080fd5b6000601f19601f8301169050919050565b7f4e487b7100000000000000000000000000000000000000000000000000000000600052604160045260246000fd5b620004a8826200045d565b810181811067ffffffffffffffff82111715620004ca57620004c96200046e565b5b80604052505050565b6000620004df6200043f565b9050620004ed82826200049d565b919050565b600067ffffffffffffffff82111562000510576200050f6200046e565b5b6200051b826200045d565b9050602081019050919050565b60005b83811015620005485780820151818401526020810190506200052b565b8381111562000558576000848401525b50505050565b6000620005756200056f84620004f2565b620004d3565b90508281526020810184848401111562000594576200059362000458565b5b620005a184828562000528565b509392505050565b600082601f830112620005c157620005c062000453565b5b8151620005d38482602086016200055e565b91505092915050565b600060208284031215620005f557620005f462000449565b5b600082015167ffffffffffffffff8111156200061657620006156200044e565b5b6200062484828501620005a9565b91505092915050565b7f4e487b7100000000000000000000000000000000000000000000000000000000600052602260045260246000fd5b600060028204905060018216806200067557607f821691505b602082108114156200068c576200068b6200062d565b5b50919050565b6120f680620006a26000396000f3fe608060405234801561001057600080fd5b50600436106100f55760003560e01c806342842e0e11610097578063a22cb46511610066578063a22cb46514610298578063b88d4fde146102b4578063c87b56dd146102d0578063e985e9c514610300576100f5565b806342842e0e146101fe5780636352211e1461021a57806370a082311461024a57806395d89b411461027a576100f5565b8063095ea7b3116100d3578063095ea7b31461017857806318160ddd1461019457806323b872dd146101b257806330d871c6146101ce576100f5565b806301ffc9a7146100fa57806306fdde031461012a578063081812fc14610148575b600080fd5b610114600480360381019061010f9190611451565b610330565b6040516101219190611499565b60405180910390f35b6101326103c2565b60405161013f919061154d565b60405180910390f35b610162600480360381019061015d91906115a5565b610454565b60405161016f9190611613565b60405180910390f35b610192600480360381019061018d919061165a565b6104d3565b005b61019c610617565b6040516101a991906116a9565b60405180910390f35b6101cc60048036038101906101c791906116c4565b61062e565b005b6101e860048036038101906101e3919061184c565b610953565b6040516101f5919061154d565b60405180910390f35b610218600480360381019061021391906116c4565b6109e6565b005b610234600480360381019061022f91906115a5565b610a06565b6040516102419190611613565b60405180910390f35b610264600480360381019061025f9190611895565b610a18565b60405161027191906116a9565b60405180910390f35b610282610ad1565b60405161028f919061154d565b60405180910390f35b6102b260048036038101906102ad91906118ee565b610b63565b005b6102ce60048036038101906102c991906119cf565b610cdb565b005b6102ea60048036038101906102e591906115a5565b610d4e565b6040516102f7919061154d565b60405180910390f35b61031a60048036038101906103159190611a52565b610e22565b6040516103279190611499565b60405180910390f35b60006301ffc9a760e01b827bffffffffffffffffffffffffffffffffffffffffffffffffffffffff1916148061038b57506380ac58cd60e01b827bffffffffffffffffffffffffffffffffffffffffffffffffffffffff1916145b806103bb5750635b5e139f60e01b827bffffffffffffffffffffffffffffffffffffffffffffffffffffffff1916145b9050919050565b6060600280546103d190611ac1565b80601f01602080910402602001604051908101604052809291908181526020018280546103fd90611ac1565b801561044a5780601f1061041f5761010080835404028352916020019161044a565b820191906000526020600020905b81548152906001019060200180831161042d57829003601f168201915b5050505050905090565b600061045f82610eb6565b610495576040517fcf4700e400000000000000000000000000000000000000000000000000000000815260040160405180910390fd5b6006600083815260200190815260200160002060000160009054906101000a900473ffffffffffffffffffffffffffffffffffffffff169050919050565b60006104de82610a06565b90508073ffffffffffffffffffffffffffffffffffffffff166104ff610f15565b73ffffffffffffffffffffffffffffffffffffffff16146105625761052b81610526610f15565b610e22565b610561576040517fcfb3b94200000000000000000000000000000000000000000000000000000000815260040160405180910390fd5b5b826006600084815260200190815260200160002060000160006101000a81548173ffffffffffffffffffffffffffffffffffffffff021916908373ffffffffffffffffffffffffffffffffffffffff160217905550818373ffffffffffffffffffffffffffffffffffffffff168273ffffffffffffffffffffffffffffffffffffffff167f8c5be1e5ebec7d5bd14f71427d1e84f3dd0314c0f7b2291e5b200ac8c7c3b92560405160405180910390a4505050565b6000610621610f1d565b6001546000540303905090565b600061063982610f22565b90508373ffffffffffffffffffffffffffffffffffffffff168173ffffffffffffffffffffffffffffffffffffffff16146106a0576040517fa114810000000000000000000000000000000000000000000000000000000000815260040160405180910390fd5b6000806106ac84610ff0565b915091506106c281876106bd610f15565b611017565b61070e576106d7866106d2610f15565b610e22565b61070d576040517f59c896be00000000000000000000000000000000000000000000000000000000815260040160405180910390fd5b5b600073ffffffffffffffffffffffffffffffffffffffff168573ffffffffffffffffffffffffffffffffffffffff161415610775576040517fea553b3400000000000000000000000000000000000000000000000000000000815260040160405180910390fd5b610782868686600161105b565b801561078d57600082555b600560008773ffffffffffffffffffffffffffffffffffffffff1673ffffffffffffffffffffffffffffffffffffffff168152602001908152602001600020600081546001900391905081905550600560008673ffffffffffffffffffffffffffffffffffffffff1673ffffffffffffffffffffffffffffffffffffffff168152602001908152602001600020600081546001019190508190555061085b85610837888887611061565b7c020000000000000000000000000000000000000000000000000000000017611089565b600460008681526020019081526020016000208190555060007c0200000000000000000000000000000000000000000000000000000000841614156108e35760006001850190506000600460008381526020019081526020016000205414156108e15760005481146108e0578360046000838152602001908152602001600020819055505b5b505b838573ffffffffffffffffffffffffffffffffffffffff168773ffffffffffffffffffffffffffffffffffffffff167fddf252ad1be2c89b69c2b068fc378daa952ba7f163c4a11628f55a4df523b3ef60405160405180910390a461094b86868660016110b4565b505050505050565b606060006040518060400160405280601a81526020017f646174613a696d6167652f7376672b786d6c3b6261736536342c000000000000815250905060006109b9846040516020016109a59190611b2f565b6040516020818303038152906040526110ba565b905081816040516020016109ce929190611b46565b60405160208183030381529060405292505050919050565b610a0183838360405180602001604052806000815250610cdb565b505050565b6000610a1182610f22565b9050919050565b60008073ffffffffffffffffffffffffffffffffffffffff168273ffffffffffffffffffffffffffffffffffffffff161415610a80576040517f8f4eb60400000000000000000000000000000000000000000000000000000000815260040160405180910390fd5b67ffffffffffffffff600560008473ffffffffffffffffffffffffffffffffffffffff1673ffffffffffffffffffffffffffffffffffffffff16815260200190815260200160002054169050919050565b606060038054610ae090611ac1565b80601f0160208091040260200160405190810160405280929190818152602001828054610b0c90611ac1565b8015610b595780601f10610b2e57610100808354040283529160200191610b59565b820191906000526020600020905b815481529060010190602001808311610b3c57829003601f168201915b5050505050905090565b610b6b610f15565b73ffffffffffffffffffffffffffffffffffffffff168273ffffffffffffffffffffffffffffffffffffffff161415610bd0576040517fb06307db00000000000000000000000000000000000000000000000000000000815260040160405180910390fd5b8060076000610bdd610f15565b73ffffffffffffffffffffffffffffffffffffffff1673ffffffffffffffffffffffffffffffffffffffff16815260200190815260200160002060008473ffffffffffffffffffffffffffffffffffffffff1673ffffffffffffffffffffffffffffffffffffffff16815260200190815260200160002060006101000a81548160ff0219169083151502179055508173ffffffffffffffffffffffffffffffffffffffff16610c8a610f15565b73ffffffffffffffffffffffffffffffffffffffff167f17307eab39ab6107e8899845ad3d59bd9653f200f220920489ca2b5937696c3183604051610ccf9190611499565b60405180910390a35050565b610ce684848461062e565b60008373ffffffffffffffffffffffffffffffffffffffff163b14610d4857610d118484848461123f565b610d47576040517fd1a57ed600000000000000000000000000000000000000000000000000000000815260040160405180910390fd5b5b50505050565b6060806060610d5c84610eb6565b610d92576040517f6df5edae00000000000000000000000000000000000000000000000000000000815260040160405180910390fd5b610dbb6009604051602001610da79190611c4a565b604051602081830303815290604052610953565b9150610dc56103c2565b82604051602001610dd7929190611e0e565b6040516020818303038152906040529050610df061139f565b610df9826110ba565b604051602001610e0a929190611b46565b60405160208183030381529060405292505050919050565b6000600760008473ffffffffffffffffffffffffffffffffffffffff1673ffffffffffffffffffffffffffffffffffffffff16815260200190815260200160002060008373ffffffffffffffffffffffffffffffffffffffff1673ffffffffffffffffffffffffffffffffffffffff16815260200190815260200160002060009054906101000a900460ff16905092915050565b600081610ec1610f1d565b11158015610ed0575060005482105b8015610f0e575060007c0100000000000000000000000000000000000000000000000000000000600460008581526020019081526020016000205416145b9050919050565b600033905090565b600090565b60008082905080610f31610f1d565b11610fb957600054811015610fb85760006004600083815260200190815260200160002054905060007c010000000000000000000000000000000000000000000000000000000082161415610fb6575b6000811415610fac576004600083600190039350838152602001908152602001600020549050610f81565b8092505050610feb565b505b5b6040517fdf2d9b4200000000000000000000000000000000000000000000000000000000815260040160405180910390fd5b919050565b60008060006006600085815260200190815260200160002090508092508254915050915091565b600073ffffffffffffffffffffffffffffffffffffffff8316925073ffffffffffffffffffffffffffffffffffffffff821691508382148383141790509392505050565b50505050565b60008060e883901c905060e86110788686846113dc565b62ffffff16901b9150509392505050565b600073ffffffffffffffffffffffffffffffffffffffff83169250814260a01b178317905092915050565b50505050565b60606000825114156110dd5760405180602001604052806000815250905061123a565b6000604051806060016040528060408152602001612081604091399050600060036002855161110c9190611e8d565b6111169190611f12565b60046111229190611f43565b905060006020826111339190611e8d565b67ffffffffffffffff81111561114c5761114b611721565b5b6040519080825280601f01601f19166020018201604052801561117e5781602001600182028036833780820191505090505b509050818152600183018586518101602084015b818310156111f9576003830192508251603f8160121c1685015160f81b8252600182019150603f81600c1c1685015160f81b8252600182019150603f8160061c1685015160f81b8252600182019150603f811685015160f81b825260018201915050611192565b60038951066001811461121357600281146112235761122e565b613d3d60f01b600283035261122e565b603d60f81b60018303525b50505050508093505050505b919050565b60008373ffffffffffffffffffffffffffffffffffffffff1663150b7a02611265610f15565b8786866040518563ffffffff1660e01b81526004016112879493929190611ff2565b602060405180830381600087803b1580156112a157600080fd5b505af19250505080156112d257506040513d601f19601f820116820180604052508101906112cf9190612053565b60015b61134c573d8060008114611302576040519150601f19603f3d011682016040523d82523d6000602084013e611307565b606091505b50600081511415611344576040517fd1a57ed600000000000000000000000000000000000000000000000000000000815260040160405180910390fd5b805181602001fd5b63150b7a0260e01b7bffffffffffffffffffffffffffffffffffffffffffffffffffffffff1916817bffffffffffffffffffffffffffffffffffffffffffffffffffffffff191614915050949350505050565b60606040518060400160405280601d81526020017f646174613a6170706c69636174696f6e2f6a736f6e3b6261736536342c000000815250905090565b60009392505050565b6000604051905090565b600080fd5b600080fd5b60007fffffffff0000000000000000000000000000000000000000000000000000000082169050919050565b61142e816113f9565b811461143957600080fd5b50565b60008135905061144b81611425565b92915050565b600060208284031215611467576114666113ef565b5b60006114758482850161143c565b91505092915050565b60008115159050919050565b6114938161147e565b82525050565b60006020820190506114ae600083018461148a565b92915050565b600081519050919050565b600082825260208201905092915050565b60005b838110156114ee5780820151818401526020810190506114d3565b838111156114fd576000848401525b50505050565b6000601f19601f8301169050919050565b600061151f826114b4565b61152981856114bf565b93506115398185602086016114d0565b61154281611503565b840191505092915050565b600060208201905081810360008301526115678184611514565b905092915050565b6000819050919050565b6115828161156f565b811461158d57600080fd5b50565b60008135905061159f81611579565b92915050565b6000602082840312156115bb576115ba6113ef565b5b60006115c984828501611590565b91505092915050565b600073ffffffffffffffffffffffffffffffffffffffff82169050919050565b60006115fd826115d2565b9050919050565b61160d816115f2565b82525050565b60006020820190506116286000830184611604565b92915050565b611637816115f2565b811461164257600080fd5b50565b6000813590506116548161162e565b92915050565b60008060408385031215611671576116706113ef565b5b600061167f85828601611645565b925050602061169085828601611590565b9150509250929050565b6116a38161156f565b82525050565b60006020820190506116be600083018461169a565b92915050565b6000806000606084860312156116dd576116dc6113ef565b5b60006116eb86828701611645565b93505060206116fc86828701611645565b925050604061170d86828701611590565b9150509250925092565b600080fd5b600080fd5b7f4e487b7100000000000000000000000000000000000000000000000000000000600052604160045260246000fd5b61175982611503565b810181811067ffffffffffffffff8211171561177857611777611721565b5b80604052505050565b600061178b6113e5565b90506117978282611750565b919050565b600067ffffffffffffffff8211156117b7576117b6611721565b5b6117c082611503565b9050602081019050919050565b82818337600083830152505050565b60006117ef6117ea8461179c565b611781565b90508281526020810184848401111561180b5761180a61171c565b5b6118168482856117cd565b509392505050565b600082601f83011261183357611832611717565b5b81356118438482602086016117dc565b91505092915050565b600060208284031215611862576118616113ef565b5b600082013567ffffffffffffffff8111156118805761187f6113f4565b5b61188c8482850161181e565b91505092915050565b6000602082840312156118ab576118aa6113ef565b5b60006118b984828501611645565b91505092915050565b6118cb8161147e565b81146118d657600080fd5b50565b6000813590506118e8816118c2565b92915050565b60008060408385031215611905576119046113ef565b5b600061191385828601611645565b9250506020611924858286016118d9565b9150509250929050565b600067ffffffffffffffff82111561194957611948611721565b5b61195282611503565b9050602081019050919050565b600061197261196d8461192e565b611781565b90508281526020810184848401111561198e5761198d61171c565b5b6119998482856117cd565b509392505050565b600082601f8301126119b6576119b5611717565b5b81356119c684826020860161195f565b91505092915050565b600080600080608085870312156119e9576119e86113ef565b5b60006119f787828801611645565b9450506020611a0887828801611645565b9350506040611a1987828801611590565b925050606085013567ffffffffffffffff811115611a3a57611a396113f4565b5b611a46878288016119a1565b91505092959194509250565b60008060408385031215611a6957611a686113ef565b5b6000611a7785828601611645565b9250506020611a8885828601611645565b9150509250929050565b7f4e487b7100000000000000000000000000000000000000000000000000000000600052602260045260246000fd5b60006002820490506001821680611ad957607f821691505b60208210811415611aed57611aec611a92565b5b50919050565b600081905092915050565b6000611b09826114b4565b611b138185611af3565b9350611b238185602086016114d0565b80840191505092915050565b6000611b3b8284611afe565b915081905092915050565b6000611b528285611afe565b9150611b5e8284611afe565b91508190509392505050565b60008190508160005260206000209050919050565b60008154611b8c81611ac1565b611b968186611af3565b94506001821660008114611bb15760018114611bc257611bf5565b60ff19831686528186019350611bf5565b611bcb85611b6a565b60005b83811015611bed57815481890152600182019150602081019050611bce565b838801955050505b50505092915050565b7f3c2f7376673e0000000000000000000000000000000000000000000000000000600082015250565b6000611c34600683611af3565b9150611c3f82611bfe565b600682019050919050565b6000611c568284611b7f565b9150611c6182611c27565b915081905092915050565b7f7b226e616d65223a220000000000000000000000000000000000000000000000600082015250565b6000611ca2600983611af3565b9150611cad82611c6c565b600982019050919050565b7f222c20226465736372697074696f6e223a225375646f537761702074616b696e60008201527f67206f766572204f70656e536561222c20000000000000000000000000000000602082015250565b6000611d14603183611af3565b9150611d1f82611cb8565b603182019050919050565b7f2261747472696275746573223a205b7b2274726169745f74797065223a20227660008201527f616e696c6c61222c202276616c7565223a20747275657d5d2c2022696d61676560208201527f223a220000000000000000000000000000000000000000000000000000000000604082015250565b6000611dac604383611af3565b9150611db782611d2a565b604382019050919050565b7f227d000000000000000000000000000000000000000000000000000000000000600082015250565b6000611df8600283611af3565b9150611e0382611dc2565b600282019050919050565b6000611e1982611c95565b9150611e258285611afe565b9150611e3082611d07565b9150611e3b82611d9f565b9150611e478284611afe565b9150611e5282611deb565b91508190509392505050565b7f4e487b7100000000000000000000000000000000000000000000000000000000600052601160045260246000fd5b6000611e988261156f565b9150611ea38361156f565b9250827fffffffffffffffffffffffffffffffffffffffffffffffffffffffffffffffff03821115611ed857611ed7611e5e565b5b828201905092915050565b7f4e487b7100000000000000000000000000000000000000000000000000000000600052601260045260246000fd5b6000611f1d8261156f565b9150611f288361156f565b925082611f3857611f37611ee3565b5b828204905092915050565b6000611f4e8261156f565b9150611f598361156f565b9250817fffffffffffffffffffffffffffffffffffffffffffffffffffffffffffffffff0483118215151615611f9257611f91611e5e565b5b828202905092915050565b600081519050919050565b600082825260208201905092915050565b6000611fc482611f9d565b611fce8185611fa8565b9350611fde8185602086016114d0565b611fe781611503565b840191505092915050565b60006080820190506120076000830187611604565b6120146020830186611604565b612021604083018561169a565b81810360608301526120338184611fb9565b905095945050505050565b60008151905061204d81611425565b92915050565b600060208284031215612069576120686113ef565b5b60006120778482850161203e565b9150509291505056fe4142434445464748494a4b4c4d4e4f505152535455565758595a6162636465666768696a6b6c6d6e6f707172737475767778797a303132333435363738392b2fa2646970667358221220475e7388348ef691d8fa8b8982bf34947f1b68e000e6384b66a1215acc7585fe64736f6c63430008090033",
  "devdoc": {
    "kind": "dev",
    "methods": {
      "approve(address,uint256)": {
        "details": "Gives permission to `to` to transfer `tokenId` token to another account. The approval is cleared when the token is transferred. Only a single account can be approved at a time, so approving the zero address clears previous approvals. Requirements: - The caller must own the token or be an approved operator. - `tokenId` must exist. Emits an {Approval} event."
      },
      "balanceOf(address)": {
        "details": "Returns the number of tokens in `owner`'s account."
      },
      "getApproved(uint256)": {
        "details": "Returns the account approved for `tokenId` token. Requirements: - `tokenId` must exist."
      },
      "isApprovedForAll(address,address)": {
        "details": "Returns if the `operator` is allowed to manage all of the assets of `owner`. See {setApprovalForAll}."
      },
      "name()": {
        "details": "Returns the token collection name."
      },
      "ownerOf(uint256)": {
        "details": "Returns the owner of the `tokenId` token. Requirements: - `tokenId` must exist."
      },
      "safeTransferFrom(address,address,uint256)": {
        "details": "Equivalent to `safeTransferFrom(from, to, tokenId, '')`."
      },
      "safeTransferFrom(address,address,uint256,bytes)": {
        "details": "Safely transfers `tokenId` token from `from` to `to`. Requirements: - `from` cannot be the zero address. - `to` cannot be the zero address. - `tokenId` token must exist and be owned by `from`. - If the caller is not `from`, it must be approved to move this token by either {approve} or {setApprovalForAll}. - If `to` refers to a smart contract, it must implement {IERC721Receiver-onERC721Received}, which is called upon a safe transfer. Emits a {Transfer} event."
      },
      "setApprovalForAll(address,bool)": {
        "details": "Approve or remove `operator` as an operator for the caller. Operators can call {transferFrom} or {safeTransferFrom} for any token owned by the caller. Requirements: - The `operator` cannot be the caller. Emits an {ApprovalForAll} event."
      },
      "supportsInterface(bytes4)": {
        "details": "Returns true if this contract implements the interface defined by `interfaceId`. See the corresponding [EIP section](https://eips.ethereum.org/EIPS/eip-165#how-interfaces-are-identified) to learn more about how these ids are created. This function call must use less than 30000 gas."
      },
      "symbol()": {
        "details": "Returns the token collection symbol."
      },
      "tokenURI(uint256)": {
        "details": "Returns the Uniform Resource Identifier (URI) for `tokenId` token."
      },
      "totalSupply()": {
        "details": "Returns the total number of tokens in existence. Burned tokens will reduce the count. To get the total number of tokens minted, please see {_totalMinted}."
      },
      "transferFrom(address,address,uint256)": {
        "details": "Transfers `tokenId` from `from` to `to`. Requirements: - `from` cannot be the zero address. - `to` cannot be the zero address. - `tokenId` token must be owned by `from`. - If the caller is not `from`, it must be approved to move this token by either {approve} or {setApprovalForAll}. Emits a {Transfer} event."
      }
    },
    "version": 1
  },
  "userdoc": {
    "errors": {
      "ApprovalCallerNotOwnerNorApproved()": [
        {
          "notice": "The caller must own the token or be an approved operator."
        }
      ],
      "ApprovalQueryForNonexistentToken()": [
        {
          "notice": "The token does not exist."
        }
      ],
      "ApproveToCaller()": [
        {
          "notice": "The caller cannot approve to their own address."
        }
      ],
      "BalanceQueryForZeroAddress()": [
        {
          "notice": "Cannot query the balance for the zero address."
        }
      ],
      "MintERC2309QuantityExceedsLimit()": [
        {
          "notice": "The `quantity` minted with ERC2309 exceeds the safety limit."
        }
      ],
      "MintToZeroAddress()": [
        {
          "notice": "Cannot mint to the zero address."
        }
      ],
      "MintZeroQuantity()": [
        {
          "notice": "The quantity of tokens minted must be more than zero."
        }
      ],
      "OwnerQueryForNonexistentToken()": [
        {
          "notice": "The token does not exist."
        }
      ],
      "OwnershipNotInitializedForExtraData()": [
        {
          "notice": "The `extraData` cannot be set on an unintialized ownership slot."
        }
      ],
      "TransferCallerNotOwnerNorApproved()": [
        {
          "notice": "The caller must own the token or be an approved operator."
        }
      ],
      "TransferFromIncorrectOwner()": [
        {
          "notice": "The token must be owned by `from`."
        }
      ],
      "TransferToNonERC721ReceiverImplementer()": [
        {
          "notice": "Cannot safely transfer to a contract that does not implement the ERC721Receiver interface."
        }
      ],
      "TransferToZeroAddress()": [
        {
          "notice": "Cannot transfer to the zero address."
        }
      ],
      "URIQueryForNonexistentToken()": [
        {
          "notice": "The token does not exist."
        }
      ]
    },
    "kind": "user",
    "methods": {},
    "version": 1
  },
  "storageLayout": {
    "storage": [
      {
        "astId": 516,
        "contract": "contracts/SudoPlain.sol:SudoPlain",
        "label": "_currentIndex",
        "offset": 0,
        "slot": "0",
        "type": "t_uint256"
      },
      {
        "astId": 518,
        "contract": "contracts/SudoPlain.sol:SudoPlain",
        "label": "_burnCounter",
        "offset": 0,
        "slot": "1",
        "type": "t_uint256"
      },
      {
        "astId": 520,
        "contract": "contracts/SudoPlain.sol:SudoPlain",
        "label": "_name",
        "offset": 0,
        "slot": "2",
        "type": "t_string_storage"
      },
      {
        "astId": 522,
        "contract": "contracts/SudoPlain.sol:SudoPlain",
        "label": "_symbol",
        "offset": 0,
        "slot": "3",
        "type": "t_string_storage"
      },
      {
        "astId": 526,
        "contract": "contracts/SudoPlain.sol:SudoPlain",
        "label": "_packedOwnerships",
        "offset": 0,
        "slot": "4",
        "type": "t_mapping(t_uint256,t_uint256)"
      },
      {
        "astId": 530,
        "contract": "contracts/SudoPlain.sol:SudoPlain",
        "label": "_packedAddressData",
        "offset": 0,
        "slot": "5",
        "type": "t_mapping(t_address,t_uint256)"
      },
      {
        "astId": 535,
        "contract": "contracts/SudoPlain.sol:SudoPlain",
        "label": "_tokenApprovals",
        "offset": 0,
        "slot": "6",
        "type": "t_mapping(t_uint256,t_struct(TokenApprovalRef)448_storage)"
      },
      {
        "astId": 541,
        "contract": "contracts/SudoPlain.sol:SudoPlain",
        "label": "_operatorApprovals",
        "offset": 0,
        "slot": "7",
        "type": "t_mapping(t_address,t_mapping(t_address,t_bool))"
      },
      {
        "astId": 286,
        "contract": "contracts/SudoPlain.sol:SudoPlain",
        "label": "minted",
        "offset": 0,
        "slot": "8",
        "type": "t_bool"
      },
      {
        "astId": 288,
        "contract": "contracts/SudoPlain.sol:SudoPlain",
        "label": "imageURIBase",
        "offset": 0,
        "slot": "9",
        "type": "t_string_storage"
      }
    ],
    "types": {
      "t_address": {
        "encoding": "inplace",
        "label": "address",
        "numberOfBytes": "20"
      },
      "t_bool": {
        "encoding": "inplace",
        "label": "bool",
        "numberOfBytes": "1"
      },
      "t_mapping(t_address,t_bool)": {
        "encoding": "mapping",
        "key": "t_address",
        "label": "mapping(address => bool)",
        "numberOfBytes": "32",
        "value": "t_bool"
      },
      "t_mapping(t_address,t_mapping(t_address,t_bool))": {
        "encoding": "mapping",
        "key": "t_address",
        "label": "mapping(address => mapping(address => bool))",
        "numberOfBytes": "32",
        "value": "t_mapping(t_address,t_bool)"
      },
      "t_mapping(t_address,t_uint256)": {
        "encoding": "mapping",
        "key": "t_address",
        "label": "mapping(address => uint256)",
        "numberOfBytes": "32",
        "value": "t_uint256"
      },
      "t_mapping(t_uint256,t_struct(TokenApprovalRef)448_storage)": {
        "encoding": "mapping",
        "key": "t_uint256",
        "label": "mapping(uint256 => struct ERC721A.TokenApprovalRef)",
        "numberOfBytes": "32",
        "value": "t_struct(TokenApprovalRef)448_storage"
      },
      "t_mapping(t_uint256,t_uint256)": {
        "encoding": "mapping",
        "key": "t_uint256",
        "label": "mapping(uint256 => uint256)",
        "numberOfBytes": "32",
        "value": "t_uint256"
      },
      "t_string_storage": {
        "encoding": "bytes",
        "label": "string",
        "numberOfBytes": "32"
      },
      "t_struct(TokenApprovalRef)448_storage": {
        "encoding": "inplace",
        "label": "struct ERC721A.TokenApprovalRef",
        "members": [
          {
            "astId": 447,
            "contract": "contracts/SudoPlain.sol:SudoPlain",
            "label": "value",
            "offset": 0,
            "slot": "0",
            "type": "t_address"
          }
        ],
        "numberOfBytes": "32"
      },
      "t_uint256": {
        "encoding": "inplace",
        "label": "uint256",
        "numberOfBytes": "32"
      }
    }
  }
}